{
  "contractName": "Case",
  "abi": [
    {
      "constant": true,
      "inputs": [
        {
          "name": "",
          "type": "address"
        }
      ],
      "name": "cases",
      "outputs": [
        {
          "name": "author",
          "type": "address"
        },
        {
          "name": "title",
          "type": "bytes32"
        },
        {
          "name": "description",
          "type": "bytes32"
        }
      ],
      "payable": false,
      "stateMutability": "view",
      "type": "function"
    },
    {
      "constant": true,
      "inputs": [
        {
          "name": "",
          "type": "uint256"
        }
      ],
      "name": "caseArray",
      "outputs": [
        {
          "name": "author",
          "type": "address"
        },
        {
          "name": "title",
          "type": "bytes32"
        },
        {
          "name": "description",
          "type": "bytes32"
        }
      ],
      "payable": false,
      "stateMutability": "view",
      "type": "function"
    },
    {
      "constant": false,
      "inputs": [
        {
          "name": "dataTitle",
          "type": "string"
        },
        {
          "name": "dataDescription",
          "type": "string"
        }
      ],
      "name": "createCase",
      "outputs": [
        {
          "name": "",
          "type": "address"
        },
        {
          "name": "",
          "type": "bytes32"
        },
        {
          "name": "",
          "type": "bytes32"
        }
      ],
      "payable": false,
      "stateMutability": "nonpayable",
      "type": "function"
    },
    {
      "constant": true,
      "inputs": [],
      "name": "numberOfCases",
      "outputs": [
        {
          "name": "",
          "type": "uint256"
        }
      ],
      "payable": false,
      "stateMutability": "view",
      "type": "function"
    }
  ],
  "bytecode": "0x6060604052341561000f57600080fd5b6108168061001e6000396000f300606060405260043610610062576000357c0100000000000000000000000000000000000000000000000000000000900463ffffffff16806313c7b939146100675780632dfe42261461009057806365e6b6bf14610127578063706a4ef4146101a8575b600080fd5b341561007257600080fd5b61007a6102a6565b6040518082815260200191505060405180910390f35b341561009b57600080fd5b6100c7600480803573ffffffffffffffffffffffffffffffffffffffff169060200190919050506102b3565b604051808473ffffffffffffffffffffffffffffffffffffffff1673ffffffffffffffffffffffffffffffffffffffff16815260200183600019166000191681526020018260001916600019168152602001935050505060405180910390f35b341561013257600080fd5b61014860048080359060200190919050506102fd565b604051808473ffffffffffffffffffffffffffffffffffffffff1673ffffffffffffffffffffffffffffffffffffffff16815260200183600019166000191681526020018260001916600019168152602001935050505060405180910390f35b34156101b357600080fd5b610246600480803590602001908201803590602001908080601f0160208091040260200160405190810160405280939291908181526020018383808284378201915050505050509190803590602001908201803590602001908080601f01602080910402602001604051908101604052809392919081815260200183838082843782019150505050505091905050610356565b604051808473ffffffffffffffffffffffffffffffffffffffff1673ffffffffffffffffffffffffffffffffffffffff16815260200183600019166000191681526020018260001916600019168152602001935050505060405180910390f35b6000600180549050905090565b60006020528060005260406000206000915090508060000160009054906101000a900473ffffffffffffffffffffffffffffffffffffffff16908060010154908060020154905083565b60018181548110151561030c57fe5b90600052602060002090600d02016000915090508060000160009054906101000a900473ffffffffffffffffffffffffffffffffffffffff16908060010154908060020154905083565b60008060008085511415801561036e57506000845114155b151561037957600080fd5b336000803373ffffffffffffffffffffffffffffffffffffffff1673ffffffffffffffffffffffffffffffffffffffff16815260200190815260200160002060000160006101000a81548173ffffffffffffffffffffffffffffffffffffffff021916908373ffffffffffffffffffffffffffffffffffffffff16021790555061040285610698565b6000803373ffffffffffffffffffffffffffffffffffffffff1673ffffffffffffffffffffffffffffffffffffffff168152602001908152602001600020600101816000191690555061045484610698565b6000803373ffffffffffffffffffffffffffffffffffffffff1673ffffffffffffffffffffffffffffffffffffffff1681526020019081526020016000206002018160001916905550600180548060010182816104b191906106c9565b91600052602060002090600d020160008060003373ffffffffffffffffffffffffffffffffffffffff1673ffffffffffffffffffffffffffffffffffffffff16815260200190815260200160002090919091506000820160009054906101000a900473ffffffffffffffffffffffffffffffffffffffff168160000160006101000a81548173ffffffffffffffffffffffffffffffffffffffff021916908373ffffffffffffffffffffffffffffffffffffffff1602179055506001820154816001019060001916905560028201548160020190600019169055600382018160030190600a6105a19291906106fb565b505050506000803373ffffffffffffffffffffffffffffffffffffffff1673ffffffffffffffffffffffffffffffffffffffff16815260200190815260200160002060000160009054906101000a900473ffffffffffffffffffffffffffffffffffffffff166000803373ffffffffffffffffffffffffffffffffffffffff1673ffffffffffffffffffffffffffffffffffffffff168152602001908152602001600020600101546000803373ffffffffffffffffffffffffffffffffffffffff1673ffffffffffffffffffffffffffffffffffffffff168152602001908152602001600020600201549250925092509250925092565b60006106a2610738565b8290506000815114156106bb57600060010291506106c3565b602083015191505b50919050565b8154818355818115116106f657600d0281600d0283600052602060002091820191016106f5919061074c565b5b505050565b82600a8101928215610727579182015b8281111561072657825482559160010191906001019061070b565b5b50905061073491906107b2565b5090565b602060405190810160405280600081525090565b6107af91905b808211156107ab57600080820160006101000a81549073ffffffffffffffffffffffffffffffffffffffff0219169055600182016000905560028201600090556003820160006107a291906107d7565b50600d01610752565b5090565b90565b6107d491905b808211156107d05760008160009055506001016107b8565b5090565b90565b5080600a01906107e791906107b2565b505600a165627a7a723058209dcec26743805ed0fe080651ff3f14f6944a4cd4e19332c5418d83222cb2648c0029",
  "source": "pragma solidity ^0.4.17;\n\ncontract Case {\n    struct CaseStruct {\n        address author;\n        bytes32 title;\n        bytes32 description;\n        bytes32[10] images;\n    }\n\n    // a user can only have one active Case at a time\n    // that address is the address of the user\n    mapping(address => CaseStruct) public cases;\n    CaseStruct[] public caseArray;\n    // create a new case for reporters to report on\n    function createCase(string dataTitle, string dataDescription) public returns (address, bytes32, bytes32) {\n        // title and description are required\n        require(bytes(dataTitle).length != 0 && bytes(dataDescription).length != 0);\n        cases[msg.sender].author = msg.sender;\n        cases[msg.sender].title = stringToBytes32(dataTitle);\n        cases[msg.sender].description = stringToBytes32(dataDescription);\n        caseArray.push(cases[msg.sender]);\n        return (cases[msg.sender].author, cases[msg.sender].title, cases[msg.sender].description);\n    }\n\n    function numberOfCases() public view returns (uint) {\n        return caseArray.length;\n    }\n\n    function stringToBytes32(string memory source) private pure returns (bytes32 result) {\n        bytes memory tempEmptyStringTest = bytes(source);\n        if (tempEmptyStringTest.length == 0) {return 0x0;}\n        assembly {\n            result := mload(add(source, 32))\n        }\n    }\n}",
  "sourcePath": "/Users/jo/Desktop/crime-ethereum/contracts/Case.sol",
  "compiler": {
    "name": "solc",
    "version": "0.4.19+commit.c4cbbb05.Emscripten.clang"
  },
  "schemaVersion": "1.0.1",
  "updatedAt": "2018-02-26T17:16:55.864Z"
}