{
  "contractName": "Case",
  "abi": [
    {
      "constant": true,
      "inputs": [
        {
          "name": "",
          "type": "address"
        }
      ],
      "name": "cases",
      "outputs": [
        {
          "name": "author",
          "type": "address"
        },
        {
          "name": "title",
          "type": "bytes32"
        },
        {
          "name": "description",
          "type": "bytes32"
        }
      ],
      "payable": false,
      "stateMutability": "view",
      "type": "function"
    },
    {
      "constant": true,
      "inputs": [
        {
          "name": "",
          "type": "uint256"
        }
      ],
      "name": "caseArray",
      "outputs": [
        {
          "name": "author",
          "type": "address"
        },
        {
          "name": "title",
          "type": "bytes32"
        },
        {
          "name": "description",
          "type": "bytes32"
        }
      ],
      "payable": false,
      "stateMutability": "view",
      "type": "function"
    },
    {
      "constant": false,
      "inputs": [
        {
          "name": "dataTitle",
          "type": "string"
        },
        {
          "name": "dataDescription",
          "type": "string"
        },
        {
          "name": "dataImages",
          "type": "bytes32[10]"
        }
      ],
      "name": "createCase",
      "outputs": [
        {
          "name": "",
          "type": "address"
        },
        {
          "name": "",
          "type": "bytes32"
        },
        {
          "name": "",
          "type": "bytes32"
        },
        {
          "name": "",
          "type": "bytes32[10]"
        }
      ],
      "payable": false,
      "stateMutability": "nonpayable",
      "type": "function"
    },
    {
      "constant": false,
      "inputs": [
        {
          "name": "dataImages",
          "type": "bytes32[10]"
        }
      ],
      "name": "updateCase",
      "outputs": [
        {
          "name": "",
          "type": "bool"
        }
      ],
      "payable": false,
      "stateMutability": "nonpayable",
      "type": "function"
    },
    {
      "constant": true,
      "inputs": [],
      "name": "numberOfCases",
      "outputs": [
        {
          "name": "",
          "type": "uint256"
        }
      ],
      "payable": false,
      "stateMutability": "view",
      "type": "function"
    }
  ],
  "bytecode": "0x6060604052341561000f57600080fd5b610ab28061001e6000396000f30060606040526004361061006d576000357c0100000000000000000000000000000000000000000000000000000000900463ffffffff16806313c7b939146100725780632dfe42261461009b5780634c6505ea1461013257806365e6b6bf146101915780638aad6a4714610212575b600080fd5b341561007d57600080fd5b61008561036c565b6040518082815260200191505060405180910390f35b34156100a657600080fd5b6100d2600480803573ffffffffffffffffffffffffffffffffffffffff16906020019091905050610379565b604051808473ffffffffffffffffffffffffffffffffffffffff1673ffffffffffffffffffffffffffffffffffffffff16815260200183600019166000191681526020018260001916600019168152602001935050505060405180910390f35b341561013d57600080fd5b610177600480806101400190600a806020026040519081016040528092919082600a602002808284378201915050505050919050506103c3565b604051808215151515815260200191505060405180910390f35b341561019c57600080fd5b6101b26004808035906020019091905050610455565b604051808473ffffffffffffffffffffffffffffffffffffffff1673ffffffffffffffffffffffffffffffffffffffff16815260200183600019166000191681526020018260001916600019168152602001935050505060405180910390f35b341561021d57600080fd5b6102dd600480803590602001908201803590602001908080601f0160208091040260200160405190810160405280939291908181526020018383808284378201915050505050509190803590602001908201803590602001908080601f0160208091040260200160405190810160405280939291908181526020018383808284378201915050505050509190806101400190600a806020026040519081016040528092919082600a602002808284378201915050505050919050506104ae565b604051808573ffffffffffffffffffffffffffffffffffffffff1673ffffffffffffffffffffffffffffffffffffffff1681526020018460001916600019168152602001836000191660001916815260200182600a60200280838360005b8381101561035657808201518184015260208101905061033b565b5050505090500194505050505060405180910390f35b6000600180549050905090565b60006020528060005260406000206000915090508060000160009054906101000a900473ffffffffffffffffffffffffffffffffffffffff16908060010154908060020154905083565b600080600090505b600a81101561044b578281600a811015156103e257fe5b60200201516000803373ffffffffffffffffffffffffffffffffffffffff1673ffffffffffffffffffffffffffffffffffffffff16815260200190815260200160002060030182600a8110151561043557fe5b01816000191690555080806001019150506103cb565b6001915050919050565b60018181548110151561046457fe5b90600052602060002090600d02016000915090508060000160009054906101000a900473ffffffffffffffffffffffffffffffffffffffff16908060010154908060020154905083565b60008060006104bb610939565b6000808851141580156104d057506000875114155b15156104db57600080fd5b336000803373ffffffffffffffffffffffffffffffffffffffff1673ffffffffffffffffffffffffffffffffffffffff16815260200190815260200160002060000160006101000a81548173ffffffffffffffffffffffffffffffffffffffff021916908373ffffffffffffffffffffffffffffffffffffffff16021790555061056488610908565b6000803373ffffffffffffffffffffffffffffffffffffffff1673ffffffffffffffffffffffffffffffffffffffff16815260200190815260200160002060010181600019169055506105b687610908565b6000803373ffffffffffffffffffffffffffffffffffffffff1673ffffffffffffffffffffffffffffffffffffffff1681526020019081526020016000206002018160001916905550600090505b600a811015610684578581600a8110151561061b57fe5b60200201516000803373ffffffffffffffffffffffffffffffffffffffff1673ffffffffffffffffffffffffffffffffffffffff16815260200190815260200160002060030182600a8110151561066e57fe5b0181600019169055508080600101915050610604565b600180548060010182816106989190610965565b91600052602060002090600d020160008060003373ffffffffffffffffffffffffffffffffffffffff1673ffffffffffffffffffffffffffffffffffffffff16815260200190815260200160002090919091506000820160009054906101000a900473ffffffffffffffffffffffffffffffffffffffff168160000160006101000a81548173ffffffffffffffffffffffffffffffffffffffff021916908373ffffffffffffffffffffffffffffffffffffffff1602179055506001820154816001019060001916905560028201548160020190600019169055600382018160030190600a610788929190610997565b505050506000803373ffffffffffffffffffffffffffffffffffffffff1673ffffffffffffffffffffffffffffffffffffffff16815260200190815260200160002060000160009054906101000a900473ffffffffffffffffffffffffffffffffffffffff166000803373ffffffffffffffffffffffffffffffffffffffff1673ffffffffffffffffffffffffffffffffffffffff168152602001908152602001600020600101546000803373ffffffffffffffffffffffffffffffffffffffff1673ffffffffffffffffffffffffffffffffffffffff168152602001908152602001600020600201546000803373ffffffffffffffffffffffffffffffffffffffff1673ffffffffffffffffffffffffffffffffffffffff16815260200190815260200160002060030180600a806020026040519081016040528092919082600a80156108ef576020028201915b815460001916815260200190600101908083116108d7575b5050505050905094509450945094505093509350935093565b60006109126109d4565b82905060008151141561092b5760006001029150610933565b602083015191505b50919050565b61014060405190810160405280600a905b600080191681526020019060019003908161094a5790505090565b81548183558181151161099257600d0281600d02836000526020600020918201910161099191906109e8565b5b505050565b82600a81019282156109c3579182015b828111156109c25782548255916001019190600101906109a7565b5b5090506109d09190610a4e565b5090565b602060405190810160405280600081525090565b610a4b91905b80821115610a4757600080820160006101000a81549073ffffffffffffffffffffffffffffffffffffffff021916905560018201600090556002820160009055600382016000610a3e9190610a73565b50600d016109ee565b5090565b90565b610a7091905b80821115610a6c576000816000905550600101610a54565b5090565b90565b5080600a0190610a839190610a4e565b505600a165627a7a72305820274cace7a4473f75d46d6c8beefd8f96881535acf94ebc5ac8ea9874edebf7fd0029",
  "source": "pragma solidity ^0.4.17;\n\ncontract Case {\n    struct CaseStruct {\n        address author;\n        bytes32 title;\n        bytes32 description;\n        // this is actually an array of 5 IPFS hashes corresponding to 5 images\n        // the reason why it is spread accross 10 elements is because the\n        // IPFS hash is too long to fit into one bytes32 and must be split up\n        bytes32[10] images;\n    }\n\n    // a user can only have one active Case at a time\n    // that address is the address of the user\n    mapping(address => CaseStruct) public cases;\n    CaseStruct[] public caseArray;\n    // create a new case for reporters to report on\n    function createCase(\n        string dataTitle,\n        string dataDescription,\n        bytes32[10] dataImages\n    ) public returns (address, bytes32, bytes32, bytes32[10])\n    {\n        // title and description are required\n        require(bytes(dataTitle).length != 0 && bytes(dataDescription).length != 0);\n        cases[msg.sender].author = msg.sender;\n        cases[msg.sender].title = stringToBytes32(dataTitle);\n        cases[msg.sender].description = stringToBytes32(dataDescription);\n        for (uint i = 0; i < 10; i++) {\n            cases[msg.sender].images[i] = dataImages[i];\n        }\n        caseArray.push(cases[msg.sender]);\n        return (\n            cases[msg.sender].author,\n            cases[msg.sender].title,\n            cases[msg.sender].description,\n            cases[msg.sender].images\n        );\n    }\n\n    function updateCase(bytes32[10] dataImages) public returns (bool) {\n        for (uint i = 0; i < 10; i++) {\n            cases[msg.sender].images[i] = dataImages[i];\n        }\n        return true;\n    }\n\n    function numberOfCases() public view returns (uint) {\n        return caseArray.length;\n    }\n\n    function stringToBytes32(string memory source) private pure returns (bytes32 result) {\n        bytes memory tempEmptyStringTest = bytes(source);\n        if (tempEmptyStringTest.length == 0) {return 0x0;}\n        assembly {\n            result := mload(add(source, 32))\n        }\n    }\n}",
  "sourcePath": "/Users/jo/Desktop/crime-ethereum/contracts/Case.sol",
  "compiler": {
    "name": "solc",
    "version": "0.4.19+commit.c4cbbb05.Emscripten.clang"
  },
  "schemaVersion": "1.0.1",
  "updatedAt": "2018-02-27T07:07:28.494Z"
}