{
  "contractName": "Case",
  "abi": [
    {
      "constant": true,
      "inputs": [
        {
          "name": "",
          "type": "address"
        }
      ],
      "name": "cases",
      "outputs": [
        {
          "name": "author",
          "type": "address"
        },
        {
          "name": "title",
          "type": "bytes32"
        },
        {
          "name": "description",
          "type": "bytes32"
        }
      ],
      "payable": false,
      "stateMutability": "view",
      "type": "function"
    },
    {
      "constant": true,
      "inputs": [
        {
          "name": "",
          "type": "uint256"
        }
      ],
      "name": "caseArray",
      "outputs": [
        {
          "name": "author",
          "type": "address"
        },
        {
          "name": "title",
          "type": "bytes32"
        },
        {
          "name": "description",
          "type": "bytes32"
        }
      ],
      "payable": false,
      "stateMutability": "view",
      "type": "function"
    },
    {
      "constant": false,
      "inputs": [
        {
          "name": "dataTitle",
          "type": "string"
        },
        {
          "name": "dataDescription",
          "type": "string"
        }
      ],
      "name": "createCase",
      "outputs": [
        {
          "name": "",
          "type": "address"
        },
        {
          "name": "",
          "type": "bytes32"
        },
        {
          "name": "",
          "type": "bytes32"
        }
      ],
      "payable": false,
      "stateMutability": "nonpayable",
      "type": "function"
    },
    {
      "constant": false,
      "inputs": [
        {
          "name": "dataImages",
          "type": "bytes32[10]"
        }
      ],
      "name": "updateCase",
      "outputs": [
        {
          "name": "",
          "type": "bool"
        }
      ],
      "payable": false,
      "stateMutability": "nonpayable",
      "type": "function"
    },
    {
      "constant": true,
      "inputs": [],
      "name": "numberOfCases",
      "outputs": [
        {
          "name": "",
          "type": "uint256"
        }
      ],
      "payable": false,
      "stateMutability": "view",
      "type": "function"
    }
  ],
  "bytecode": "0x6060604052341561000f57600080fd5b6109128061001e6000396000f30060606040526004361061006d576000357c0100000000000000000000000000000000000000000000000000000000900463ffffffff16806313c7b939146100725780632dfe42261461009b5780634c6505ea1461013257806365e6b6bf14610191578063706a4ef414610212575b600080fd5b341561007d57600080fd5b610085610310565b6040518082815260200191505060405180910390f35b34156100a657600080fd5b6100d2600480803573ffffffffffffffffffffffffffffffffffffffff1690602001909190505061031d565b604051808473ffffffffffffffffffffffffffffffffffffffff1673ffffffffffffffffffffffffffffffffffffffff16815260200183600019166000191681526020018260001916600019168152602001935050505060405180910390f35b341561013d57600080fd5b610177600480806101400190600a806020026040519081016040528092919082600a60200280828437820191505050505091905050610367565b604051808215151515815260200191505060405180910390f35b341561019c57600080fd5b6101b260048080359060200190919050506103f9565b604051808473ffffffffffffffffffffffffffffffffffffffff1673ffffffffffffffffffffffffffffffffffffffff16815260200183600019166000191681526020018260001916600019168152602001935050505060405180910390f35b341561021d57600080fd5b6102b0600480803590602001908201803590602001908080601f0160208091040260200160405190810160405280939291908181526020018383808284378201915050505050509190803590602001908201803590602001908080601f01602080910402602001604051908101604052809392919081815260200183838082843782019150505050505091905050610452565b604051808473ffffffffffffffffffffffffffffffffffffffff1673ffffffffffffffffffffffffffffffffffffffff16815260200183600019166000191681526020018260001916600019168152602001935050505060405180910390f35b6000600180549050905090565b60006020528060005260406000206000915090508060000160009054906101000a900473ffffffffffffffffffffffffffffffffffffffff16908060010154908060020154905083565b600080600090505b600a8110156103ef578281600a8110151561038657fe5b60200201516000803373ffffffffffffffffffffffffffffffffffffffff1673ffffffffffffffffffffffffffffffffffffffff16815260200190815260200160002060030182600a811015156103d957fe5b018160001916905550808060010191505061036f565b6001915050919050565b60018181548110151561040857fe5b90600052602060002090600d02016000915090508060000160009054906101000a900473ffffffffffffffffffffffffffffffffffffffff16908060010154908060020154905083565b60008060008085511415801561046a57506000845114155b151561047557600080fd5b336000803373ffffffffffffffffffffffffffffffffffffffff1673ffffffffffffffffffffffffffffffffffffffff16815260200190815260200160002060000160006101000a81548173ffffffffffffffffffffffffffffffffffffffff021916908373ffffffffffffffffffffffffffffffffffffffff1602179055506104fe85610794565b6000803373ffffffffffffffffffffffffffffffffffffffff1673ffffffffffffffffffffffffffffffffffffffff168152602001908152602001600020600101816000191690555061055084610794565b6000803373ffffffffffffffffffffffffffffffffffffffff1673ffffffffffffffffffffffffffffffffffffffff1681526020019081526020016000206002018160001916905550600180548060010182816105ad91906107c5565b91600052602060002090600d020160008060003373ffffffffffffffffffffffffffffffffffffffff1673ffffffffffffffffffffffffffffffffffffffff16815260200190815260200160002090919091506000820160009054906101000a900473ffffffffffffffffffffffffffffffffffffffff168160000160006101000a81548173ffffffffffffffffffffffffffffffffffffffff021916908373ffffffffffffffffffffffffffffffffffffffff1602179055506001820154816001019060001916905560028201548160020190600019169055600382018160030190600a61069d9291906107f7565b505050506000803373ffffffffffffffffffffffffffffffffffffffff1673ffffffffffffffffffffffffffffffffffffffff16815260200190815260200160002060000160009054906101000a900473ffffffffffffffffffffffffffffffffffffffff166000803373ffffffffffffffffffffffffffffffffffffffff1673ffffffffffffffffffffffffffffffffffffffff168152602001908152602001600020600101546000803373ffffffffffffffffffffffffffffffffffffffff1673ffffffffffffffffffffffffffffffffffffffff168152602001908152602001600020600201549250925092509250925092565b600061079e610834565b8290506000815114156107b757600060010291506107bf565b602083015191505b50919050565b8154818355818115116107f257600d0281600d0283600052602060002091820191016107f19190610848565b5b505050565b82600a8101928215610823579182015b82811115610822578254825591600101919060010190610807565b5b50905061083091906108ae565b5090565b602060405190810160405280600081525090565b6108ab91905b808211156108a757600080820160006101000a81549073ffffffffffffffffffffffffffffffffffffffff02191690556001820160009055600282016000905560038201600061089e91906108d3565b50600d0161084e565b5090565b90565b6108d091905b808211156108cc5760008160009055506001016108b4565b5090565b90565b5080600a01906108e391906108ae565b505600a165627a7a7230582026b6a0088e2988461b8f69d4b061f3d89295b63fce275da6981bb62a042e65a10029",
  "source": "pragma solidity ^0.4.17;\n\ncontract Case {\n    struct CaseStruct {\n        address author;\n        bytes32 title;\n        bytes32 description;\n        bytes32[10] images;\n    }\n\n    // a user can only have one active Case at a time\n    // that address is the address of the user\n    mapping(address => CaseStruct) public cases;\n    CaseStruct[] public caseArray;\n    // create a new case for reporters to report on\n    function createCase(string dataTitle, string dataDescription) public returns (address, bytes32, bytes32) {\n        // title and description are required\n        require(bytes(dataTitle).length != 0 && bytes(dataDescription).length != 0);\n        cases[msg.sender].author = msg.sender;\n        cases[msg.sender].title = stringToBytes32(dataTitle);\n        cases[msg.sender].description = stringToBytes32(dataDescription);\n        caseArray.push(cases[msg.sender]);\n        return (cases[msg.sender].author, cases[msg.sender].title, cases[msg.sender].description);\n    }\n\n    function updateCase(bytes32[10] dataImages) public returns (bool) {\n        for (uint i = 0; i < 10; i++) {\n            cases[msg.sender].images[i] = dataImages[i];\n        }\n        return true;\n    }\n\n    function numberOfCases() public view returns (uint) {\n        return caseArray.length;\n    }\n\n    function stringToBytes32(string memory source) private pure returns (bytes32 result) {\n        bytes memory tempEmptyStringTest = bytes(source);\n        if (tempEmptyStringTest.length == 0) {return 0x0;}\n        assembly {\n            result := mload(add(source, 32))\n        }\n    }\n}",
  "sourcePath": "/Users/jo/Desktop/crime-ethereum/contracts/Case.sol",
  "compiler": {
    "name": "solc",
    "version": "0.4.19+commit.c4cbbb05.Emscripten.clang"
  },
  "schemaVersion": "1.0.1",
  "updatedAt": "2018-02-27T05:12:11.205Z"
}